{"abi":[{"type":"constructor","inputs":[{"name":"plonkVerifierAddress","type":"address","internalType":"address"}],"stateMutability":"nonpayable"},{"type":"function","name":"approve","inputs":[{"name":"to","type":"address","internalType":"address"},{"name":"tokenId","type":"uint256","internalType":"uint256"}],"outputs":[],"stateMutability":"nonpayable"},{"type":"function","name":"balanceOf","inputs":[{"name":"owner","type":"address","internalType":"address"}],"outputs":[{"name":"","type":"uint256","internalType":"uint256"}],"stateMutability":"view"},{"type":"function","name":"getAllProofDetails","inputs":[{"name":"owner","type":"address","internalType":"address"}],"outputs":[{"name":"","type":"tuple[]","internalType":"struct ZKLocationProofToken.LocationProof[]","components":[{"name":"ipfsCid","type":"string","internalType":"string"},{"name":"timestamp","type":"uint256","internalType":"uint256"}]}],"stateMutability":"view"},{"type":"function","name":"getApproved","inputs":[{"name":"tokenId","type":"uint256","internalType":"uint256"}],"outputs":[{"name":"","type":"address","internalType":"address"}],"stateMutability":"view"},{"type":"function","name":"getOwnedProofs","inputs":[{"name":"owner","type":"address","internalType":"address"}],"outputs":[{"name":"","type":"uint256[]","internalType":"uint256[]"}],"stateMutability":"view"},{"type":"function","name":"getProof","inputs":[{"name":"tokenId","type":"uint256","internalType":"uint256"}],"outputs":[{"name":"","type":"tuple","internalType":"struct ZKLocationProofToken.LocationProof","components":[{"name":"ipfsCid","type":"string","internalType":"string"},{"name":"timestamp","type":"uint256","internalType":"uint256"}]}],"stateMutability":"view"},{"type":"function","name":"isApprovedForAll","inputs":[{"name":"owner","type":"address","internalType":"address"},{"name":"operator","type":"address","internalType":"address"}],"outputs":[{"name":"","type":"bool","internalType":"bool"}],"stateMutability":"view"},{"type":"function","name":"name","inputs":[],"outputs":[{"name":"","type":"string","internalType":"string"}],"stateMutability":"view"},{"type":"function","name":"ownerOf","inputs":[{"name":"tokenId","type":"uint256","internalType":"uint256"}],"outputs":[{"name":"","type":"address","internalType":"address"}],"stateMutability":"view"},{"type":"function","name":"s_plonkVerifierAddress","inputs":[],"outputs":[{"name":"","type":"address","internalType":"address"}],"stateMutability":"view"},{"type":"function","name":"safeTransferFrom","inputs":[{"name":"from","type":"address","internalType":"address"},{"name":"to","type":"address","internalType":"address"},{"name":"tokenId","type":"uint256","internalType":"uint256"}],"outputs":[],"stateMutability":"nonpayable"},{"type":"function","name":"safeTransferFrom","inputs":[{"name":"from","type":"address","internalType":"address"},{"name":"to","type":"address","internalType":"address"},{"name":"tokenId","type":"uint256","internalType":"uint256"},{"name":"data","type":"bytes","internalType":"bytes"}],"outputs":[],"stateMutability":"nonpayable"},{"type":"function","name":"setApprovalForAll","inputs":[{"name":"operator","type":"address","internalType":"address"},{"name":"approved","type":"bool","internalType":"bool"}],"outputs":[],"stateMutability":"nonpayable"},{"type":"function","name":"submitProof","inputs":[{"name":"proof","type":"bytes","internalType":"bytes"},{"name":"pubSignals","type":"uint256[]","internalType":"uint256[]"},{"name":"ipfsCid","type":"string","internalType":"string"}],"outputs":[{"name":"","type":"bool","internalType":"bool"}],"stateMutability":"nonpayable"},{"type":"function","name":"supportsInterface","inputs":[{"name":"interfaceId","type":"bytes4","internalType":"bytes4"}],"outputs":[{"name":"","type":"bool","internalType":"bool"}],"stateMutability":"view"},{"type":"function","name":"symbol","inputs":[],"outputs":[{"name":"","type":"string","internalType":"string"}],"stateMutability":"view"},{"type":"function","name":"tokenURI","inputs":[{"name":"tokenId","type":"uint256","internalType":"uint256"}],"outputs":[{"name":"","type":"string","internalType":"string"}],"stateMutability":"view"},{"type":"function","name":"transferFrom","inputs":[{"name":"from","type":"address","internalType":"address"},{"name":"to","type":"address","internalType":"address"},{"name":"tokenId","type":"uint256","internalType":"uint256"}],"outputs":[],"stateMutability":"nonpayable"},{"type":"event","name":"Approval","inputs":[{"name":"owner","type":"address","indexed":true,"internalType":"address"},{"name":"approved","type":"address","indexed":true,"internalType":"address"},{"name":"tokenId","type":"uint256","indexed":true,"internalType":"uint256"}],"anonymous":false},{"type":"event","name":"ApprovalForAll","inputs":[{"name":"owner","type":"address","indexed":true,"internalType":"address"},{"name":"operator","type":"address","indexed":true,"internalType":"address"},{"name":"approved","type":"bool","indexed":false,"internalType":"bool"}],"anonymous":false},{"type":"event","name":"ProofResult","inputs":[{"name":"result","type":"bool","indexed":false,"internalType":"bool"}],"anonymous":false},{"type":"event","name":"Transfer","inputs":[{"name":"from","type":"address","indexed":true,"internalType":"address"},{"name":"to","type":"address","indexed":true,"internalType":"address"},{"name":"tokenId","type":"uint256","indexed":true,"internalType":"uint256"}],"anonymous":false},{"type":"error","name":"ERC721IncorrectOwner","inputs":[{"name":"sender","type":"address","internalType":"address"},{"name":"tokenId","type":"uint256","internalType":"uint256"},{"name":"owner","type":"address","internalType":"address"}]},{"type":"error","name":"ERC721InsufficientApproval","inputs":[{"name":"operator","type":"address","internalType":"address"},{"name":"tokenId","type":"uint256","internalType":"uint256"}]},{"type":"error","name":"ERC721InvalidApprover","inputs":[{"name":"approver","type":"address","internalType":"address"}]},{"type":"error","name":"ERC721InvalidOperator","inputs":[{"name":"operator","type":"address","internalType":"address"}]},{"type":"error","name":"ERC721InvalidOwner","inputs":[{"name":"owner","type":"address","internalType":"address"}]},{"type":"error","name":"ERC721InvalidReceiver","inputs":[{"name":"receiver","type":"address","internalType":"address"}]},{"type":"error","name":"ERC721InvalidSender","inputs":[{"name":"sender","type":"address","internalType":"address"}]},{"type":"error","name":"ERC721NonexistentToken","inputs":[{"name":"tokenId","type":"uint256","internalType":"uint256"}]}],"bytecode":{"object":"0x608060405234801561001057600080fd5b506040516119e63803806119e683398101604081905261002f916100c7565b6040518060400160405280601481526020017f5a4b4c6f636174696f6e50726f6f66546f6b656e000000000000000000000000815250604051806040016040528060048152602001631692d41560e21b81525081600090816100919190610198565b50600161009e8282610198565b5050600780546001600160a01b0319166001600160a01b03939093169290921790915550610257565b6000602082840312156100d957600080fd5b81516001600160a01b03811681146100f057600080fd5b9392505050565b634e487b7160e01b600052604160045260246000fd5b600181811c9082168061012157607f821691505b60208210810361014157634e487b7160e01b600052602260045260246000fd5b50919050565b601f821115610193576000816000526020600020601f850160051c810160208610156101705750805b601f850160051c820191505b8181101561018f5782815560010161017c565b5050505b505050565b81516001600160401b038111156101b1576101b16100f7565b6101c5816101bf845461010d565b84610147565b602080601f8311600181146101fa57600084156101e25750858301515b600019600386901b1c1916600185901b17855561018f565b600085815260208120601f198616915b828110156102295788860151825594840194600190910190840161020a565b50858210156102475787850151600019600388901b60f8161c191681555b5050505050600190811b01905550565b611780806102666000396000f3fe608060405234801561001057600080fd5b50600436106101165760003560e01c80636352211e116100a2578063a69b683611610071578063a69b683614610253578063b88d4fde14610273578063c87b56dd14610286578063d43776d914610299578063e985e9c5146102b957600080fd5b80636352211e1461020457806370a082311461021757806395d89b4114610238578063a22cb4651461024057600080fd5b8063095ea7b3116100e9578063095ea7b31461019657806311149ada146101ab57806323b872dd146101cb57806342842e0e146101de57806344896a9a146101f157600080fd5b806301ffc9a71461011b57806306fdde0314610143578063081812fc1461015857806308a6b97d14610183575b600080fd5b61012e61012936600461104e565b6102cc565b60405190151581526020015b60405180910390f35b61014b61031e565b60405161013a91906110bb565b61016b6101663660046110ce565b6103b0565b6040516001600160a01b03909116815260200161013a565b61012e61019136600461119e565b6103d9565b6101a96101a43660046112a5565b610523565b005b6101be6101b93660046110ce565b610532565b60405161013a91906112f8565b6101a96101d936600461130b565b610681565b6101a96101ec36600461130b565b61070c565b60075461016b906001600160a01b031681565b61016b6102123660046110ce565b61072c565b61022a610225366004611347565b610737565b60405190815260200161013a565b61014b61077f565b6101a961024e366004611370565b61078e565b610266610261366004611347565b610799565b60405161013a91906113e3565b6101a96102813660046113f6565b610805565b61014b6102943660046110ce565b61081c565b6102ac6102a7366004611347565b610891565b60405161013a919061145e565b61012e6102c73660046114c2565b610960565b60006001600160e01b031982166380ac58cd60e01b14806102fd57506001600160e01b03198216635b5e139f60e01b145b8061031857506301ffc9a760e01b6001600160e01b03198316145b92915050565b60606000805461032d906114f5565b80601f0160208091040260200160405190810160405280929190818152602001828054610359906114f5565b80156103a65780601f1061037b576101008083540402835291602001916103a6565b820191906000526020600020905b81548152906001019060200180831161038957829003601f168201915b5050505050905090565b60006103bb8261098e565b506000828152600460205260409020546001600160a01b0316610318565b600754604051631e8e1e1360e01b815260009182916001600160a01b0390911690631e8e1e1390610410908890889060040161152f565b602060405180830381865afa15801561042d573d6000803e3d6000fd5b505050506040513d601f19601f82011682018060405250810190610451919061155d565b90507fb6030296ed6d28f593d0c257c080ef243cd60eb419e82d45d9e530c59391510281604051610486911515815260200190565b60405180910390a1600654604080518082018252858152426020808301919091526000848152600890915291909120815181906104c390826115ca565b50602082015181600101559050506104db33826109c7565b3360009081526009602090815260408220805460018181018355918452918320909101839055600680549192909161051490849061168a565b90915550919695505050505050565b61052e828233610a2c565b5050565b60408051808201909152606081526000602082015260006105528361072c565b6001600160a01b0316036105c75760405162461bcd60e51b815260206004820152603160248201527f5a4b4c6f636174696f6e50726f6f66546f6b656e3a2050726f6f6620746f6b6560448201527037103237b2b9903737ba1032bc34b9ba1760791b60648201526084015b60405180910390fd5b6000828152600860205260409081902081518083019092528054829082906105ee906114f5565b80601f016020809104026020016040519081016040528092919081815260200182805461061a906114f5565b80156106675780601f1061063c57610100808354040283529160200191610667565b820191906000526020600020905b81548152906001019060200180831161064a57829003601f168201915b505050505081526020016001820154815250509050919050565b6001600160a01b0382166106ab57604051633250574960e11b8152600060048201526024016105be565b60006106b8838333610a39565b9050836001600160a01b0316816001600160a01b031614610706576040516364283d7b60e01b81526001600160a01b03808616600483015260248201849052821660448201526064016105be565b50505050565b61072783838360405180602001604052806000815250610805565b505050565b60006103188261098e565b60006001600160a01b038216610763576040516322718ad960e21b8152600060048201526024016105be565b506001600160a01b031660009081526003602052604090205490565b60606001805461032d906114f5565b61052e338383610b32565b6001600160a01b0381166000908152600960209081526040918290208054835181840281018401909452808452606093928301828280156107f957602002820191906000526020600020905b8154815260200190600101908083116107e5575b50505050509050919050565b610810848484610681565b61070684848484610bd1565b60606108278261098e565b50600061083f60408051602081019091526000815290565b9050600081511161085f576040518060200160405280600081525061088a565b8061086984610cfa565b60405160200161087a9291906116ab565b6040516020818303038152906040525b9392505050565b6060600061089e83610799565b90506000815167ffffffffffffffff8111156108bc576108bc6110e7565b60405190808252806020026020018201604052801561090257816020015b6040805180820190915260608152600060208201528152602001906001900390816108da5790505b50905060005b825181101561095857610933838281518110610926576109266116da565b6020026020010151610532565b828281518110610945576109456116da565b6020908102919091010152600101610908565b509392505050565b6001600160a01b03918216600090815260056020908152604080832093909416825291909152205460ff1690565b6000818152600260205260408120546001600160a01b03168061031857604051637e27328960e01b8152600481018490526024016105be565b6001600160a01b0382166109f157604051633250574960e11b8152600060048201526024016105be565b60006109ff83836000610a39565b90506001600160a01b03811615610727576040516339e3563760e11b8152600060048201526024016105be565b6107278383836001610d8d565b6000828152600260205260408120546001600160a01b0390811690831615610a6657610a66818486610e93565b6001600160a01b03811615610aa457610a83600085600080610d8d565b6001600160a01b038116600090815260036020526040902080546000190190555b6001600160a01b03851615610ad3576001600160a01b0385166000908152600360205260409020805460010190555b60008481526002602052604080822080546001600160a01b0319166001600160a01b0389811691821790925591518793918516917fddf252ad1be2c89b69c2b068fc378daa952ba7f163c4a11628f55a4df523b3ef91a4949350505050565b6001600160a01b038216610b6457604051630b61174360e31b81526001600160a01b03831660048201526024016105be565b6001600160a01b03838116600081815260056020908152604080832094871680845294825291829020805460ff191686151590811790915591519182527f17307eab39ab6107e8899845ad3d59bd9653f200f220920489ca2b5937696c31910160405180910390a3505050565b6001600160a01b0383163b1561070657604051630a85bd0160e11b81526001600160a01b0384169063150b7a0290610c139033908890879087906004016116f0565b6020604051808303816000875af1925050508015610c4e575060408051601f3d908101601f19168201909252610c4b9181019061172d565b60015b610cb7573d808015610c7c576040519150601f19603f3d011682016040523d82523d6000602084013e610c81565b606091505b508051600003610caf57604051633250574960e11b81526001600160a01b03851660048201526024016105be565b805181602001fd5b6001600160e01b03198116630a85bd0160e11b14610cf357604051633250574960e11b81526001600160a01b03851660048201526024016105be565b5050505050565b60606000610d0783610ef7565b600101905060008167ffffffffffffffff811115610d2757610d276110e7565b6040519080825280601f01601f191660200182016040528015610d51576020820181803683370190505b5090508181016020015b600019016f181899199a1a9b1b9c1cb0b131b232b360811b600a86061a8153600a8504945084610d5b57509392505050565b8080610da157506001600160a01b03821615155b15610e63576000610db18461098e565b90506001600160a01b03831615801590610ddd5750826001600160a01b0316816001600160a01b031614155b8015610df05750610dee8184610960565b155b15610e195760405163a9fbf51f60e01b81526001600160a01b03841660048201526024016105be565b8115610e615783856001600160a01b0316826001600160a01b03167f8c5be1e5ebec7d5bd14f71427d1e84f3dd0314c0f7b2291e5b200ac8c7c3b92560405160405180910390a45b505b5050600090815260046020526040902080546001600160a01b0319166001600160a01b0392909216919091179055565b610e9e838383610fcf565b610727576001600160a01b038316610ecc57604051637e27328960e01b8152600481018290526024016105be565b60405163177e802f60e01b81526001600160a01b0383166004820152602481018290526044016105be565b60008072184f03e93ff9f4daa797ed6e38ed64bf6a1f0160401b8310610f365772184f03e93ff9f4daa797ed6e38ed64bf6a1f0160401b830492506040015b6d04ee2d6d415b85acef81000000008310610f62576d04ee2d6d415b85acef8100000000830492506020015b662386f26fc100008310610f8057662386f26fc10000830492506010015b6305f5e1008310610f98576305f5e100830492506008015b6127108310610fac57612710830492506004015b60648310610fbe576064830492506002015b600a83106103185760010192915050565b60006001600160a01b0383161580159061102d5750826001600160a01b0316846001600160a01b0316148061100957506110098484610960565b8061102d57506000828152600460205260409020546001600160a01b038481169116145b949350505050565b6001600160e01b03198116811461104b57600080fd5b50565b60006020828403121561106057600080fd5b813561088a81611035565b60005b8381101561108657818101518382015260200161106e565b50506000910152565b600081518084526110a781602086016020860161106b565b601f01601f19169290920160200192915050565b60208152600061088a602083018461108f565b6000602082840312156110e057600080fd5b5035919050565b634e487b7160e01b600052604160045260246000fd5b604051601f8201601f1916810167ffffffffffffffff81118282101715611126576111266110e7565b604052919050565b600082601f83011261113f57600080fd5b813567ffffffffffffffff811115611159576111596110e7565b61116c601f8201601f19166020016110fd565b81815284602083860101111561118157600080fd5b816020850160208301376000918101602001919091529392505050565b6000806000606084860312156111b357600080fd5b833567ffffffffffffffff808211156111cb57600080fd5b6111d78783880161112e565b94506020915081860135818111156111ee57600080fd5b8601601f810188136111ff57600080fd5b803582811115611211576112116110e7565b8060051b6112208582016110fd565b918252828101850191858101908b84111561123a57600080fd5b938601935b838510156112585784358252938601939086019061123f565b975050505060408701359250508082111561127257600080fd5b5061127f8682870161112e565b9150509250925092565b80356001600160a01b03811681146112a057600080fd5b919050565b600080604083850312156112b857600080fd5b6112c183611289565b946020939093013593505050565b60008151604084526112e4604085018261108f565b602093840151949093019390935250919050565b60208152600061088a60208301846112cf565b60008060006060848603121561132057600080fd5b61132984611289565b925061133760208501611289565b9150604084013590509250925092565b60006020828403121561135957600080fd5b61088a82611289565b801515811461104b57600080fd5b6000806040838503121561138357600080fd5b61138c83611289565b9150602083013561139c81611362565b809150509250929050565b60008151808452602080850194506020840160005b838110156113d8578151875295820195908201906001016113bc565b509495945050505050565b60208152600061088a60208301846113a7565b6000806000806080858703121561140c57600080fd5b61141585611289565b935061142360208601611289565b925060408501359150606085013567ffffffffffffffff81111561144657600080fd5b6114528782880161112e565b91505092959194509250565b600060208083016020845280855180835260408601915060408160051b87010192506020870160005b828110156114b557603f198886030184526114a38583516112cf565b94509285019290850190600101611487565b5092979650505050505050565b600080604083850312156114d557600080fd5b6114de83611289565b91506114ec60208401611289565b90509250929050565b600181811c9082168061150957607f821691505b60208210810361152957634e487b7160e01b600052602260045260246000fd5b50919050565b604081526000611542604083018561108f565b828103602084015261155481856113a7565b95945050505050565b60006020828403121561156f57600080fd5b815161088a81611362565b601f821115610727576000816000526020600020601f850160051c810160208610156115a35750805b601f850160051c820191505b818110156115c2578281556001016115af565b505050505050565b815167ffffffffffffffff8111156115e4576115e46110e7565b6115f8816115f284546114f5565b8461157a565b602080601f83116001811461162d57600084156116155750858301515b600019600386901b1c1916600185901b1785556115c2565b600085815260208120601f198616915b8281101561165c5788860151825594840194600190910190840161163d565b508582101561167a5787850151600019600388901b60f8161c191681555b5050505050600190811b01905550565b8082018082111561031857634e487b7160e01b600052601160045260246000fd5b600083516116bd81846020880161106b565b8351908301906116d181836020880161106b565b01949350505050565b634e487b7160e01b600052603260045260246000fd5b6001600160a01b03858116825284166020820152604081018390526080606082018190526000906117239083018461108f565b9695505050505050565b60006020828403121561173f57600080fd5b815161088a8161103556fea2646970667358221220021f1a4c2975f1aaa6947f4c4b32af2b8f140d5ce80fa2897b15d6ba4ab92fc564736f6c63430008190033","linkReferences":{}},"methodIdentifiers":{"approve(address,uint256)":"095ea7b3","balanceOf(address)":"70a08231","getAllProofDetails(address)":"d43776d9","getApproved(uint256)":"081812fc","getOwnedProofs(address)":"a69b6836","getProof(uint256)":"11149ada","isApprovedForAll(address,address)":"e985e9c5","name()":"06fdde03","ownerOf(uint256)":"6352211e","s_plonkVerifierAddress()":"44896a9a","safeTransferFrom(address,address,uint256)":"42842e0e","safeTransferFrom(address,address,uint256,bytes)":"b88d4fde","setApprovalForAll(address,bool)":"a22cb465","submitProof(bytes,uint256[],string)":"08a6b97d","supportsInterface(bytes4)":"01ffc9a7","symbol()":"95d89b41","tokenURI(uint256)":"c87b56dd","transferFrom(address,address,uint256)":"23b872dd"},"id":25}