{"abi":[{"type":"function","name":"verifyProof","inputs":[{"name":"proof","type":"bytes","internalType":"bytes"},{"name":"pubSignals","type":"uint256[]","internalType":"uint256[]"}],"outputs":[{"name":"","type":"bool","internalType":"bool"}],"stateMutability":"view"}],"bytecode":{"object":"0x6080604052348015600f57600080fd5b5061140b8061001f6000396000f3fe608060405234801561001057600080fd5b506004361061002b5760003560e01c80631e8e1e1314610030575b600080fd5b61004361003e3660046112fd565b610057565b604051901515815260200160405180910390f35b60006111cb565b600080600184846000805b821561008b575092938183058581029091039350909181830290039081610069565b505050600181111561009c57600080fd5b505060008112156100aa5783015b9392505050565b60405181602084028301815160208301925060005b828410156100f7578185526000805160206113b68339815191528451830991506020850194506020840193506100c6565b61010f6000805160206113b68339815191528361005e565b91506020850394506020840393508592505b82841115610166576000805160206113b68339815191528551830990506000805160206113b683398151915284518309818552601f1995860195909401939150610121565b5090915250505050565b6000805160206113b6833981519152811061018f576000805260206000f35b50565b6103208151146101a6576000805260206000f35b6101b4610260820151610170565b6101c2610280820151610170565b6101d06102a0820151610170565b6101de6102c0820151610170565b6101ec6102e0820151610170565b6101fa610300820151610170565b61018f610320820151610170565b60008060208501516102c085015260208301516102e08501526020800183015161030085015260406020018301516103208501526060602001830151610340850152608060200183015161036085015260a06020018301516103808501526000805160206113b683398151915260e06102c08601200690508060208501526000805160206113b68339815191526020808601200660408501526000805160206113b6833981519152604060e08501200660008501526000805160206113b683398151915260c06101208501200691508160608501526000805160206113b683398151915282820960a0850152506000805160206113b683398151915281820990506000805160206113b683398151915281820990506000805160206113b683398151915281820990506000805160206113b683398151915281820990506000805160206113b683398151915281820990508060808401526000805160206113b683398151915280600183030106905080610260840152806102808401526000805160206113b683398151915260e0610260840120068060c08501526000805160206113b683398151915281820991508160e08501526000805160206113b68339815191528183099150816101008501526000805160206113b68339815191528183099150816101208501526000805160206113b68339815191528183099150816101408501526000805160206113b6833981519152818309610160850152505060806101e091909101206000805160206113b683398151915290066101809091015250565b60016000805160206113b6833981519152806000805160206113b68339815191528360608601510301066020096102a083015261048f600261028084016100b1565b610260820151600191506000805160206113b6833981519152816102a0850151096102a0840152505050565b60006000805160206113b6833981519152806000805160206113b683398151915260208601516102a086015109830301069050806101a0830152505050565b60008060006000805160206113b68339815191526101a08601516103208601510892506000805160206113b683398151915260208601516102c08601510991506000805160206113b6833981519152610260850151830891506000805160206113b68339815191526040860151830891506000805160206113b683398151915260208601516102e08601510990506000805160206113b6833981519152610280850151820890506000805160206113b68339815191526040860151820890506000805160206113b683398151915281830991506000805160206113b683398151915260408601516102a08601510890506000805160206113b683398151915281830991506000805160206113b6833981519152610300850151830991506000805160206113b68339815191526000860151830991506000805160206113b683398151915260008601516102a08701510990506000805160206113b68339815191526000860151820990506000805160206113b68339815191528183089150506000805160206113b6833981519152816000805160206113b6833981519152840103069150506000805160206113b683398151915261028084015182099050806101c0840152505050565b6040518151815260208201516020820152825160408201526020830151606082015260408260808360066107d05a03fa905080610705576000805260206000f35b505050565b6000604051835181526020840151602082015284604082015260408160608360076107d05a03fa915081610742576000805260206000f35b825160408201526020830151606082015260408360808360066107d05a03fa91505080610773576000805260206000f35b50505050565b600060405183815284602082015285604082015260408160608360076107d05a03fa9150816107ac576000805260206000f35b825160408201526020830151606082015260408360808360066107d05a03fa915050806107dd576000805260206000f35b5050505050565b600060405183815284602082015285604082015260408360608360076107d05a03fa915050806107dd576000805260206000f35b6101e082016108356101e083018281518152602091820151910152565b61070561018084015161022084018361070a565b60008061022084016000805160206113b683398151915260c08601516102608601510992506108ba837f02e54e0275445e269e1d5b593c671c5a3c7787deb99d877420be33f7376385397f28999a24cf41cb7f5477b05417ec5f4f2d460a89caae0e07e3eaeba5ac568125846107e4565b6000805160206113b68339815191526102808501518409925061091f837f09742d1fa784edca3549812b0121572ca9dbb35dd4684045d772408865fa1e4b7f0ed42b61c48fffe8fb7797ad3542b49fc39a4f2cc51d40babd0e31362ac7e6d884610779565b6000805160206113b683398151915260c0860151610280860151099250610988837f2a375c17bc0f07607aba1517c4c844c2e824e02ce712b253ba48b5258f9421707f2677e46f1525ed41b063ecfc461eb535202c78c510191bab9456e0c064da455484610779565b6000805160206113b683398151915260c08601516102a08601510992506109f1837f08c64ec72e440f97910f7526a262f94ad8ac64b8d327d516e7fdbfe6f9e0005e7f024e03e3f4293766318b713ef6eb4b4d2e4a80e8d9d1329256c51a494d1f5da084610779565b60c08501519250610a44837f2b62733ca9c47ebbcae7d4ceb2db867887ae2ef66118980cc79874ca1d0e22147f058f9d58ff1bdff84c5c0f49b4a39b5dedd652e91514acbf4b0ecbbdfc25786884610779565b6000805160206113b683398151915260a08601516102608601510892506000805160206113b68339815191526040860151840892506000805160206113b683398151915260a086015160020991506000805160206113b6833981519152610280850151830891506000805160206113b68339815191526040860151830891506000805160206113b683398151915282840992506000805160206113b683398151915260a086015160030991506000805160206113b68339815191526102a0850151830891506000805160206113b68339815191526040860151830891506000805160206113b683398151915282840992506000805160206113b68339815191526000860151840992506000805160206113b683398151915260c0860151840992506000805160206113b683398151915260008601516102a08701510991506000805160206113b68339815191526000860151830991506000805160206113b683398151915260c0860151830991506000805160206113b683398151915282840892506000805160206113b683398151915261018086015184089250610bed8360e086018361070a565b6000805160206113b68339815191526102c085015160208701510992506000805160206113b6833981519152610260850151840892506000805160206113b68339815191526040860151840892506000805160206113b68339815191526102e085015160208701510991506000805160206113b6833981519152610280850151830891506000805160206113b68339815191526040860151830891506000805160206113b683398151915282840992506000805160206113b68339815191526000860151840992506000805160206113b683398151915260c0860151840992506000805160206113b68339815191526020860151840992506000805160206113b683398151915261030085015184096000805160206113b6833981519152908103069250610d5d837f24c147567dafd4191e1a6b6a0454ba621801ab61e998a38939bdbb64d664760e7f29b6c1b3e9065435d429d078311433f67a86ea5361159e8f740541899c94c0a884610779565b610d6b6101208501826106c4565b60808501519250610d818361016086018361070a565b6000805160206113b68339815191528384099250610da4836101a086018361070a565b610db660e0860151602086018361070a565b610dc9610100860151606086018361070a565b610ddc61012086015160a086018361070a565b610e2d6101408601517f0e65e2f35d97f40565921b1fdef35f329fa140b6149b718a493217dfa926d9477f2d6c9d3011d9e5b219e4005594f20926562891671887abea906656470d3f1e2184610779565b610e7e6101608601517f0f555be3adf1604edc317b91425104be179f4152774a5b8c0941aeb92ac4abf87f1dbde0c37609ac6a5ab8f393f5c494df1ff84e28c46e93fc04d69f6f0e0d87bc84610779565b6101c085015192506000805160206113b68339815191528060c087015161032087015109840892506000805160206113b68339815191528060e087015161026087015109840892506000805160206113b68339815191528061010087015161028087015109840892506000805160206113b6833981519152806101208701516102a087015109840892506000805160206113b6833981519152806101408701516102c087015109840892506000805160206113b6833981519152806101608701516102e087015109840892506000805160206113b6833981519152806101808701516103008701510984086000805160206113b6833981519152908103069250610f8c836002600184610779565b60608501519250610fa2836101e086018361070a565b6000805160206113b683398151915260608601516101808701510992506000805160206113b68339815191527f09c532c6306b93d29678200d47c0b2a99c18d51b838eeb1d3eed4c533bb512d0840992506107dd8361022086018361070a565b60006040516101e0830151815260206101e08401015160208201527f26186a2d65ee4d2f9c9a5b91f86597d35f192cd120caf7e935d8443d1938e23d60408201527f30441fd1b5d3370482c42152a8899027716989a6996c2535bc9f7fee8aaef79e60608201527f1970ea81dd6992adfbc571effb03503adbbb6a857f578403c6c40e22d65b3c0260808201527f054793348f12c0cf5622c340573cb277586319de359ab9389778f689786b1e4860a082015261022083015160c08201526020610220840101517f30644e72e131a029b85045b68181585d97816a916871ca8d3c208c16d87cfd47817f30644e72e131a029b85045b68181585d97816a916871ca8d3c208c16d87cfd47030690508060e0830152507f198e9393920d483a7260bfb731fb5d25f1aa493335a9e71297e485b7aef312c26101008201527f1800deef121f1e76426a00665e5c4479674322d4f75edadd46debd5cd992f6ed6101208201527f090689d0585ff075ec9e99ad690c3395bc4b313370b38ef355acdadcd122975b6101408201527f12c85ea5db8c6deb4aab71808dcb408fe3d1e7690c43d37b4ce6cc0166fa7daa6101608201526020816101808360086107d05a03fa90511692915050565b6040516102c081016040526111df84610192565b6111ea838286610208565b6111f38161044d565b6111fd83826104bb565b61120781856104fa565b6112118185610818565b61121b8185610849565b61122481611002565b6102c082036040528060005260206000f35b634e487b7160e01b600052604160045260246000fd5b604051601f8201601f1916810167ffffffffffffffff8111828210171561127557611275611236565b604052919050565b600082601f83011261128e57600080fd5b8135602067ffffffffffffffff8211156112aa576112aa611236565b8160051b6112b982820161124c565b92835284810182019282810190878511156112d357600080fd5b83870192505b848310156112f2578235825291830191908301906112d9565b979650505050505050565b6000806040838503121561131057600080fd5b823567ffffffffffffffff8082111561132857600080fd5b818501915085601f83011261133c57600080fd5b813560208282111561135057611350611236565b611362601f8301601f1916820161124c565b828152888284870101111561137657600080fd5b8282860183830137600092810182019290925290945085013591508082111561139e57600080fd5b506113ab8582860161127d565b915050925092905056fe30644e72e131a029b85045b68181585d2833e84879b9709143e1f593f0000001a2646970667358221220dae843f05c67e8a15d8c7f5996444aba13e077bad7155127532df0fab117ce1664736f6c63430008190033","linkReferences":{}},"methodIdentifiers":{"verifyProof(bytes,uint256[])":"1e8e1e13"},"id":0}